:100000000C947C000C94A4000C94A4000C94A40008
:100010000C94A4000C94A4000C94A4000C94A400D0
:100020000C94FD080C94A4000C94A4000C94A4005F
:100030000C94A4000C94A4000C94A4000C94A400B0
:100040000C9494070C94A4000C9462070C943C0745
:100050000C94A4000C94A4000C94A4000C94A40090
:100060000C94DE070C94A400677261637A793A20DD
:10007000005779626965727A20696C6F736300005A
:100080000000080002010000030407000000000057
:1000900000000000000000250028002B00000000E8
:1000A00000240027002A00696C6F73632067726167
:1000B000637A792E00506F64616A20706F7072618C
:1000C000776E610000000000230026002900040470
:1000D00004040404040402020202020203030303F0
:1000E00003030102040810204080010204081020CC
:1000F000010204081020F20911241FBECFEFD8E03E
:10010000DEBFCDBF24E0A6EBB1E001C01D92A53259
:10011000B207E1F711E0A0E0B1E0E0E5F9E202C0EA
:1001200005900D92A63BB107D9F710E0CCE7D0E0DF
:1001300004C02197FE010E94A014CB37D107C9F754
:100140000E944D0A0C94A6140C940000A6E3B3E0A0
:1001500011968C93119790E0FC01EE51FF4FE491C2
:100160001496EC931497FC01E253FF4FE491F0E0F6
:10017000EE0FFF1FEC53FF4F8591949113969C93C4
:100180008E93129708950F931F93CF93DF93E0916F
:100190001804F091190440917E02808510E0481700
:1001A00008F064C0142F117000917D0201114FC03E
:1001B000842F90E0880F991FE80FF91F0184F285C2
:1001C000E02D2CEE3FEF112311F024E130E0C0913F
:1001D0007B02D0917C022C0F3D1FC90163E470E0CB
:1001E0000E948C14E617F70760F0C90168E270E01E
:1001F0000E948C146F5F7F4F81E090E06E177F0745
:1002000010F52C0F3D1FC90163E470E00E948C14AF
:10021000E617F70750F0C90168E270E00E948C14FD
:100220006F5F7F4F6E177F0760F42C0F3D1FC90172
:1002300063E470E00E948C14E617F707E8F41FEF00
:1002400015C082E090E090937A02809379020F5F6C
:1002500000937D028091790290917A020817190625
:1002600028F010927D024F5F40937E02812FDF9134
:10027000CF911F910F910895C90168E270E00E942B
:100280008C146F5F7F4F6E177F07C8F283E090E09A
:10029000DACF08950895AF92BF92CF92DF92EF9296
:1002A000FF920F931F93CF93DF936C017B018B0120
:1002B000040F151FEB015E01AE18BF08C017D10770
:1002C00059F06991D601ED91FC910190F081E02DFA
:1002D000C6010995892B79F7C501DF91CF911F914F
:1002E0000F91FF90EF90DF90CF90BF90AF90089567
:1002F000FC01538D448D252F30E0842F90E0821B2C
:10030000930B541710F0CF96089501970895FC01B0
:10031000918D828D981761F0A28DAE0FBF2FB11D08
:100320005D968C91928D9F5F9F73928F90E0089560
:100330008FEF9FEF0895FC01918D828D981731F01A
:10034000828DE80FF11D858D90E008958FEF9FEF6E
:100350000895FC01918D228D892F90E0805C9F4F44
:10036000821B91098F73992708958FE792E00E946D
:10037000A90121E0892B09F420E0822F089580E073
:1003800090E0892B29F00E94B50181110C940000A6
:100390000895FC01A48DA80FB92FB11DA35ABF4F1A
:1003A0002C91848D90E001968F739927848FA68974
:1003B000B7892C93A089B1898C91837080648C93C8
:1003C000938D848D981306C00288F389E02D808177
:1003D0008F7D80830895EF92FF920F931F93CF93A9
:1003E000DF93EC0181E0888F9B8D8C8D98131AC070
:1003F000E889F989808185FF15C09FB7F894EE8957
:10040000FF896083E889F9898081837080648083B3
:100410009FBF81E090E0DF91CF911F910F91FF90FE
:10042000EF900895F62E0B8D10E00F5F1F4F0F73A6
:100430001127E02E8C8D8E110CC00FB607FCFACF61
:10044000E889F989808185FFF5CFCE010E94C90135
:10045000F1CFEB8DEC0FFD2FF11DE35AFF4FF08232
:100460009FB7F8940B8FEA89FB8980818062CFCF98
:10047000CF93DF93EC01888D8823B9F0AA89BB89DB
:10048000E889F9898C9185FD03C0808186FD0DC0C6
:100490000FB607FCF7CF8C9185FFF2CF808185FFE7
:1004A000EDCFCE010E94C901E9CFDF91CF91089530
:1004B00090E0FC01E158FF4F2491FC01EE51FF4F09
:1004C0003491FC01E253FF4FE491EE23C9F0222363
:1004D00039F0233001F1A8F4213019F1223029F14B
:1004E000F0E0EE0FFF1FED56FF4FA591B4918FB7CF
:1004F000F894EC91611126C030953E233C938FBF58
:1005000008952730A9F02830C9F0243049F78091A8
:1005100080008F7D03C0809180008F778093800062
:10052000DFCF84B58F7784BDDBCF84B58F7DFBCFE4
:100530008091B0008F778093B000D2CF8091B000CF
:100540008F7DF9CF3E2BDACF3FB7F89480916D02C3
:1005500090916E02A0916F02B091700226B5A89B97
:1005600005C02F3F19F00196A11DB11D3FBFBA2F45
:10057000A92F982F8827BC01CD01620F711D811D05
:10058000911D42E0660F771F881F991F4A95D1F78A
:1005900008958F929F92AF92BF92CF92DF92EF9287
:1005A000FF924B015C010E94A4026B017C010E943E
:1005B000A4026C197D098E099F09683E734081056C
:1005C0009105A8F321E0821A9108A108B10888EEEC
:1005D000C80E83E0D81EE11CF11C81149104A10413
:1005E000B10429F7FF90EF90DF90CF90BF90AF90CC
:1005F0009F908F90089520911E02260F3327331F5E
:1006000021323105ECF420914202FC0190E080E0BF
:10061000243069F082E00895A0911E022191AC017E
:1006200042505E4FA40FB52FB11D2C930196861733
:1006300098F380911E02680F60931E0280E0089577
:1006400081E008951092420281E08093440210926A
:10065000430261E082E10E94580261E083E10E946E
:100660005802E9EBF0E080818E7F808380818D7F6E
:10067000808388E48093B80085E48093BC0008956B
:10068000CF93DF9391E09093FD018823B9F0C0915F
:10069000B800D091BA008091BC008A7B8093BC00E6
:1006A00060E082E10E94580260E083E10E9458020B
:1006B0000E942203D093BA00C093B800DF91CF917B
:1006C00008950895E091780280917702E81730F458
:1006D000F0E0E852FE4F808190E008958FEF9FEFA9
:1006E000089590917802809177022FEF3FEF98174D
:1006F00048F4E92FF0E0E852FE4F208130E09F5FA0
:1007000090937802C90108958091770290917802C0
:10071000891B990B0895CF92DF92EF92FF920F936E
:100720001F93CF93DF937C01CB018A012091D701E6
:10073000222389F0EB016B01C40ED51ECC15DD051B
:1007400069F06991D701ED91FC910190F081E02D64
:10075000C7010995F3CF642F0E94FB02C801DF9106
:10076000CF911F910F91FF90EF90DF90CF90089560
:10077000CF93DF931F92CDB7DEB769832091D70166
:100780002223F9F020917502203258F021E030E068
:10079000FC013383228390E080E00F90DF91CF91C2
:1007A000089580917602E82FF0E0E954FE4F998198
:1007B00090838F5F809376028093750281E090E052
:1007C000ECCF61E0CE0101960E94FB02F7CFCF9201
:1007D000DF92EF92FF920F931F93CF93DF93FC0171
:1007E000C48121E02093D701C093B6011092760214
:1007F000109275028385682B8CE193E00E94B80308
:10080000D0917502D13208F092C00E94A4026B010F
:100810007C0180914202811165C082E08093420296
:1008200081E0809344028FEF809341021092660230
:10083000D0936502A7EBB1E0E5E4F2E080E0D813E5
:1008400085C01092670280916702CC0FC82BC093BD
:10085000670280914302813009F07CC0109243020C
:100860000E94A4026B017C01809167028093BB000F
:100870008091F9019091FA01A091FB01B091FC01E6
:10088000892B8A2B8B2B99F00E94A4020091F901ED
:100890001091FA012091FB013091FC016C197D0946
:1008A0008E099F090617170728073907E0F180917D
:1008B000BC0083FDD9CF85EC8093BC000E94A402CC
:1008C0006B017C0180914202823009F445C0809125
:1008D00041028F3F61F180914102803241F180916C
:1008E000410225C08091F9019091FA01A091FB018C
:1008F000B091FC01892B8A2B8B2B09F48ACF0E94A3
:10090000A4020091F9011091FA012091FB013091AC
:10091000FC016C197D098E099F0906171707280726
:10092000390708F076CF8091F8010E9440031092B9
:100930007602109275021092D701DF91CF911F912C
:100940000F91FF90EF90DF90CF9008959D9191933C
:100950008F5F75CF85EEB0CF8091F9019091FA014C
:10096000A091FB01B091FC01892B8A2B8B2B09F400
:10097000A9CF0E94A4020091F9011091FA012091DF
:10098000FB013091FC016C197D098E099F09061746
:1009900017072807390708F095CFC5CF089590E0CD
:1009A00080E00895FC019B0124513109C90163E4F1
:1009B00070E00E948C14E617F70758F0C90168E24E
:1009C00070E00E948C146F5F7F4F81E06E177F078D
:1009D00008F480E00895FC019B012C5E3F4FC901A3
:1009E00063E470E00E948C14E617F70758F0C90121
:1009F00068E270E00E948C146F5F7F4F81E06E1799
:100A00007F0708F480E008952F923F924F925F9203
:100A10006F927F928F929F92AF92BF92CF92DF920E
:100A2000EF92FF920F931F93CF93DF9300D01F920B
:100A3000CDB7DEB789832A011901862F90E0880F90
:100A4000991F09966091180470911904860F971FD9
:100A50009B838A83EE20A1F1912CC12CD12C7601AD
:100A60009981991609F477C0B201EA81FB818081EE
:100A700091810E94EB04882309F457C0EA81FB812D
:100A8000A280B380B101C5010E94D204882369F01D
:100A9000CC0CDD1CEE1CFF1C6894C0F88A819B8185
:100AA00004969B838A839394DBCFB801C5010E948F
:100AB000D2048823D1F1CC0CDD1CEE1CFF1CEECF40
:100AC000812C912C54018394C12CD12C76019981D5
:100AD000992309F440C0B201EA81FB8180819181B0
:100AE0000E94EB04882309F1EA81FB816280738014
:100AF000B101C3010E94D204882389F0C828D928F3
:100B0000EA28FB288A819B8104969B838A83880C30
:100B1000991CAA1CBB1C998191509983D8CFB8010C
:100B2000C3010E94D2048111EDCF0F900F900F905E
:100B3000DF91CF911F910F91FF90EF90DF90CF90B9
:100B4000BF90AF909F908F907F906F905F904F90ED
:100B50003F902F900895C0921404D0921504E09213
:100B60001604F092170481E0E0CF3F924F925F921B
:100B70006F927F928F929F92AF92BF92CF92DF92AD
:100B8000EF92FF920F931F93CF93DF9300D000D08B
:100B900000D0CDB7DEB7382E5A8349833C832B83F0
:100BA00038010091180410911904862F90E0880FE5
:100BB000991F0996800F911F9E838D83812C912C04
:100BC00054018394C12CD12C7601332009F452C0F6
:100BD000ED81FE814080518069817A81C2010E944D
:100BE000EB04882341F1C828D928EA28FB282D8165
:100BF0003E812E5F3F4FF801808590E0880F991F5E
:100C00000996800F911F2817390768F4B301ED8109
:100C1000FE81828193810E94D204882399F02D81E4
:100C20003E812C5F3F4F880C991CAA1CBB1C3A9438
:100C30003E832D83CACF6B817C81C2010E94EB046D
:100C40008111D5CF26960FB6F894DEBF0FBECDBF6B
:100C5000DF91CF911F910F91FF90EF90DF90CF9098
:100C6000BF90AF909F908F907F906F905F904F90CC
:100C70003F900895C0921404D0921504E092160497
:100C8000F092170481E0DECF0F931F93CF938C0176
:100C9000C62F0E94E7036C2F6460C8010E94E7031F
:100CA0006C2F6B7FC8010E94E70383EC90E00197F3
:100CB000F1F7CF911F910F9108950F931F93CF9349
:100CC000DF938C01D62FC42F607F642B0E944406D3
:100CD00080E1D89FB00111246C2BC801DF91CF9126
:100CE0001F910F910C94440641E00E945D0681E043
:100CF00090E008950F931F93CF93DF938C01D0E082
:100D0000C0E0F801EC0FFD1F6491662339F041E06B
:100D10008AE293E00E945D062196F3CFCE01DF9137
:100D2000CF911F910F910895CF93DF93CDB7DEB789
:100D300028970FB6F894DEBF0FBECDBF98E0E0E075
:100D4000F1E0DE01119601900D929A95E1F79091F4
:100D50003203981708F48FEF90E0880F991F21E075
:100D600030E02C0F3D1F820F931FFC0160816068F3
:100D700040E08AE293E028960FB6F894DEBF0FBEFB
:100D8000CDBFDF91CF910C945D0680E00E94940668
:100D900081E790E00E947A0681E00E94940688E64E
:100DA00090E00C947A0640E061E08AE293E00E94D1
:100DB0005D068BE39FE10197F1F70895FB01019038
:100DC0000020E9F73197AF01461B570BDC01ED918D
:100DD000FC910280F381E02D0994CF93DF93D0E062
:100DE000C0E0009731F0BC018FE792E00E94DE0680
:100DF000EC0168E371E08FE792E00E94DE068C0F61
:100E00009D1FDF91CF91089585ED8093BC00809167
:100E1000F9019091FA01A091FB01B091FC010796B4
:100E2000A11DB11D23E0B695A795979587952A95A5
:100E3000D1F72091BC0024FD03C010924202089516
:100E40004091F9015091FA016091FB017091FC0110
:100E5000452B462B472B69F30097A105B10541F0BF
:100E600025E32A95F1F700000197A109B109E1CF27
:100E70008091F8010C9440031F920F920FB60F92CD
:100E800011242F933F934F935F936F937F938F938F
:100E90009F93AF93BF93EF93FF938FE792E00E94EE
:100EA000C901FF91EF91BF91AF919F918F917F9178
:100EB0006F915F914F913F912F910F900FBE0F90C7
:100EC0001F9018951F920F920FB60F9211242F9317
:100ED0008F939F93EF93FF93E0918F02F091900295
:100EE0008081E0919502F091960282FD1BC0908175
:100EF000809198028F5F8F7320919902821741F041
:100F0000E0919802F0E0E158FD4F958F80939802B0
:100F1000FF91EF919F918F912F910F900FBE0F90A6
:100F20001F9018958081F4CF1F920F920FB60F92E9
:100F300011242F933F938F939F93AF93BF938091EF
:100F4000690290916A02A0916B02B0916C0230919B
:100F5000680223E0230F2D3758F50196A11DB11D1E
:100F6000209368028093690290936A02A0936B02B7
:100F7000B0936C0280916D0290916E02A0916F020D
:100F8000B09170020196A11DB11D80936D029093E6
:100F90006E02A0936F02B0937002BF91AF919F91C8
:100FA0008F913F912F910F900FBE0F901F9018952A
:100FB00026E8230F0296A11DB11DD2CF1F920F92DA
:100FC0000FB60F9211242F933F934F935F936F931C
:100FD0007F938F939F93AF93BF93EF93FF938091F2
:100FE000B900887F803609F44AC0F0F5883209F4E8
:100FF000A7C018F5803109F49BC0B8F4882309F420
:10100000F9C0883009F494C0FF91EF91BF91AF917E
:101010009F918F917F916F915F914F913F912F9110
:101020000F900FBE0F901F901895883109F488C05B
:10103000803251F78093410214C0803409F49DC07E
:1010400040F48033B9F38833F9F68093410285EC9C
:10105000B0C0803509F485C0883509F496C088345D
:1010600099F60E940407D0CF883909F48CC038F56E
:10107000883729F050F4883611F0803729F683E05C
:10108000809342021092400257C0883809F47BC016
:10109000803919F0803809F0B7CF80914002803252
:1010A00008F071C0E091400281E08E0F8093400211
:1010B0008091BB00F0E0E05EFD4F80833DC0803B4F
:1010C00039F0E0F4803A09F479C0883A09F09CCF0D
:1010D00084E08093420210921F0210921E02E0915F
:1010E0007302F0917402099580911E0281110FC064
:1010F00081E080931E021092FE0109C0803C09F439
:10110000A6CF883C09F4A3CF883B09F07DCFE091BE
:101110001F0281E08E0F80931F02F0E0E250FE4F2D
:1011200080818093BB0090911F0280911E0229C094
:10113000809167028093BB0085EC8093BC0064CFF4
:101140009091660280916502981758F5E0916602C9
:1011500081E08E0F80936602F0E0EB5BFD4F8081B3
:10116000E9CFE091660281E08E0F80936602809164
:10117000BB00F0E0EB5BFD4F8083909166028091B5
:1011800065029817C8F285E8D8CFE091660281E041
:101190008E0F809366028091BB00F0E0EB5BFD4F09
:1011A00080838091440281115CCF81E0809343026F
:1011B00084EA8093BC001092420226CF85EC809393
:1011C000BC001092420280914002803230F4E091E3
:1011D0004002F0E0E05EFD4F10826091400270E05E
:1011E000E0917102F091720280E292E00995109212
:1011F00040020ACF1092410234CF1F920F920FB6D5
:101200000F9211242F933F934F935F936F937F938C
:101210008F939F93AF93BF93EF93FF93E091380326
:10122000F0913903908180913A03982320913B03F8
:1012300030913C032F3F320731F02F5F3F4F309307
:101240003C0320933B0380913603811135C09111FB
:1012500016C020913B0330913C032536310558F0F0
:1012600010923D033093400320933F0381E080932D
:101270003E038093360310923C0310923B0380910F
:101280000804882341F080910704911161C061E056
:10129000811161C02D9AFF91EF91BF91AF919F9104
:1012A0008F917F916F915F914F913F912F910F900F
:1012B0000FBE0F901F901895809136038130A1F4D6
:1012C0009923E9F2E0913E038E0F80933E03F0E014
:1012D000EE0FFF1FEA5CFC4F20913B0330913C0373
:1012E0003287218782E0C5CF80913603823039F57D
:1012F000911119C0E0913E0381E0E43620F0809323
:101300003D0383E0B6CF8E0F80933E03F0E0EE0FF7
:10131000FF1FEA5CFC4F20913B0330913C03328776
:10132000218781E0A6CF20913B0330913C032536F5
:10133000310508F4A4CF83E080933603A0CF8091D9
:101340003603833009F09BCF992309F494CF97CFCC
:10135000882321F060E00E9458029DCF2D989BCFFA
:10136000EF92FF920F931F93CF93DF93EC01F62F31
:101370008A01790190E080E030E0E0E0DE01AE0F2C
:10138000B11D2C91222341F0320F2E9F800D911D13
:1013900011241C92FE1315C0332399F0532F569538
:1013A000850F911D632F70E00E948C14DE01A60F43
:1013B000B11D3C93D8013C9131110EC06C9390E06B
:1013C00080E0EF5FFE17D0F681E0DF91CF911F91B3
:1013D0000F91FF90EF900895D7013C91332371F363
:1013E00080E0F3CFEFE7F2E01382128288EE93E021
:1013F000A0E0B0E084839583A683B7832CE031E03E
:101400003183208325EC30E03587248724EC30E0DD
:101410003787268720EC30E0318B208B21EC30E0C1
:10142000338B228B22EC30E0358B248B26EC30E0A2
:10143000378B268B118E128E138E148EECE1F3E017
:101440001382128284839583A683B7838EE191E011
:1014500091838083EAE2F3E01382128280E391E0D9
:101460009183808387E2848384E1818784E082871B
:10147000138682E090E0909329038093280386E30B
:1014800093E0909319048093180480E00E94A600D2
:10149000E7E0F4E0108211820895CF93DF93CDB797
:1014A000DEB7E6970FB6F894DEBF0FBECDBF7894D7
:1014B00084B5826084BD84B5816084BD85B5826059
:1014C00085BD85B5816085BD80916E00816080930A
:1014D0006E00109281008091810082608093810073
:1014E0008091810081608093810080918000816083
:1014F000809380008091B10084608093B1008091DE
:10150000B00081608093B00080917A008460809305
:101510007A0080917A00826080937A0080917A00CC
:10152000816080937A0080917A00806880937A004D
:101530001092C100E0918F02F091900282E08083CE
:10154000E0918B02F0918C021082E0918D02F0917B
:101550008E028FEC808310929702E0919302F091BB
:10156000940286E08083E0919102F0919202808162
:1015700080618083E0919102F09192028081886085
:101580008083E0919102F091920280818068808353
:10159000E0919102F091920280818F7D8083809111
:1015A00028030E94A6001092070481E0809308049B
:1015B000EFEEF0E02491EBEDF0E08491882399F0D8
:1015C00090E0880F991FFC01E356FF4FA591B4915D
:1015D000FC01ED56FF4F859194918FB7F894EC91F3
:1015E000E22BEC938FBFF89482E08093B00080935D
:1015F000B10084E68093B3008093B4001092B200EF
:1016000084E08093700080913603833011F410924F
:10161000360378948091370390E0FC01EE51FF4F40
:10162000249182539F4FFC0184918823C9F090E05C
:10163000880F991FFC01E356FF4F45915491FC011F
:10164000ED56FF4FA591B4919FB7F894FA018081B0
:101650002095822380838C91E22FE823EC939FBF17
:101660001092780210927702109276021092750210
:101670000E94220389E491E09093740280937302A4
:101680008AE491E0909372028093710210922F038A
:1016900080913403823018F098E090932F03809368
:1016A000320362E370E080E090E00E94C902609142
:1016B00035038AE293E00E94E70368EE73E080E07E
:1016C00090E00E94C90260E38AE293E00E9444062F
:1016D0000BE416E4C8010197F1F760E38AE293E0B6
:1016E0000E944406C8010197F1F760E38AE293E0A3
:1016F0000E94440683E592E00197F1F760E28AE2F6
:1017000093E00E94440660912F03606240E08AE209
:1017100093E00E945D0684E08093300340E06CE03B
:101720008AE293E00E945D060E94D30682E08093E5
:10173000310340E066E08AE293E00E945D0640E00B
:1017400062E08AE293E00E945D068BE39FE10197ED
:10175000F1F788E08093350360E08AE293E00E942D
:10176000E70380E00E9494066BE371E08AE293E075
:101770000E94DE060E94D30664E670E080E090E0FE
:101780000E94C9020E94C5066AE0462E70E2672EDA
:10179000712C9E012F5F3F4F4901809136031FE35B
:1017A000833009F0D4C780913D03882309F45CC0DD
:1017B00010923D0310923E0380E480931304109234
:1017C0000A041092090410920E0410920D04109253
:1017D0000C0410920B041092140410921504109231
:1017E00016041092170410921204109211048091A2
:1017F000130486FDDEC0E0911804F09119042085E1
:10180000822F8F7B843009F0F9C0838594858658B8
:1018100091098C35910508F0F1C0858596852430B5
:1018200009F049C08197489708F0E8C087859089FA
:101830000897089708F0E2C081E080931304809134
:101840001C0490911D0490930C0480930B048091D0
:1018500020049091210490930E0480930D048091B4
:101860001A0490911B04FCC1109213048091090486
:1018700090910A0490931B0480931A0480910D04A4
:1018800090910E04B0E0A0E0809320049093210496
:10189000A0932204B093230480910B0490910C0434
:1018A000B0E0A0E080931C0490931D04A0931E045C
:1018B000B0931F0484CF825491098F9708F09EC083
:1018C000E12C00E312E020E936E040E352E063E07F
:1018D00080E20E940405882309F490C0E091180476
:1018E000F0911904E157FF4F808191810897089783
:1018F00008F084C02091140490911504609116049E
:1019000080911704462F50E050930E0440930D042D
:10191000422F592F4E3E37E8530709F04CC025E1BE
:1019200030E030930A042093090490E090930C0473
:1019300080930B047092120460921104809114043D
:1019400090911504A0911604B09117041EE381151F
:10195000EFEF9E07E0E4AE07EFEBBE0709F4E9C640
:1019600008F033C719E381152FEF92072AE4A20785
:1019700025EBB20709F4DDC608F0C2C616E38115EF
:101980005FEF95075AE5A50755EAB50709F4D1C6F3
:1019900018E38115EFEF9E07E2E5AE07EDEABE071B
:1019A00009F4C7C613E381159F4FAE45B14A09F448
:1019B000C0C61FE3BEC69095291310C030E0309317
:1019C0000C0420930B04982F909569130CC088E0A9
:1019D00090E090930A0480930904ACCF50930C04D8
:1019E00040930B04F0CF24E130E030930A042093BD
:1019F000090460930D0480930E049CCFE0911804B9
:101A0000F09119048085843609F0B5C083859485EA
:101A1000C397859708F0AFC0858596854A97439709
:101A200008F0A9C0E12C00EB11E020E135E040EB2B
:101A300051E063E080E10E940405882309F49BC023
:101A400050901404C52CD090150449E0A42EB12C5C
:101A500052E0C51650E2D50619F13DE0A32EB12C97
:101A60008AEAC8168AE5D806D9F02CE0A22EB12C55
:101A700094E5C91692E3D90699F09BE0A92EB12C02
:101A8000A3E0CA16A1E0DA0659F05EE0A52EB12C5B
:101A9000B3E2CB16BBECDB0619F08AE0A82EB12C22
:101AA0005D24852D82958F705826E52DEF705E2E72
:101AB000E12C00EB11E020E135E040EB51E063E286
:101AC00080E20E940405882309F455C08091140423
:101AD00090911504A0911604B09117049C0104E0A4
:101AE000369527950A95E1F730930C0420930B0463
:101AF0002A2F30E030930E0420930D04282F2A273C
:101B00002927382F3F70531619F034E0309313040F
:101B1000FAE0AF16B10479F03091130430613093DC
:101B2000130440910F0450911004C42AD52AD09276
:101B30001004C0920F042B1729F0809113048460C5
:101B400080931304E0911804F09119048185928523
:101B500088329A4028F480911304816080931304A2
:101B6000B0920A04A092090480E390E090931204DA
:101B700080931104E3CEE0911804F091190480855C
:101B8000803209F075C0EE24E3940CE013E02CE100
:101B900037E044E051E061E08FE00E9404058823D3
:101BA00009F466C0E0911804F0911904DF01A95B03
:101BB000BF4F8D919C910497059708F059C080E81C
:101BC00080931304C0901404D0901504E090160480
:101BD000F09017044C2D4370D701C60112E0B69562
:101BE000A795979587951A95D1F790930B04109226
:101BF0000C049C01332730930E0420930D0421859F
:101C000032852536344088F5209124042F5F2093B7
:101C10002404C0FE11C032E8309313043091200434
:101C20008095381719F086E880931304832F90E08D
:101C300090930E0480930D04223028F080911304B9
:101C40008160809313048FE090E09093120480935E
:101C50001104415082E190E0423010F083E090E0C6
:101C600090930A048093090469CE10922404EBCF68
:101C7000E0911804F09119048385948584974A971C
:101C800008F055C020852A3129F02A3219F0203277
:101C900009F04DC0858596850897089708F047C0DC
:101CA00030E0C901019797FDC9019595879508E531
:101CB00012E028E532E040EB54E063E00E94B50515
:101CC0008823A9F18091140490911504A091160421
:101CD000B0911704282F2F77E7E0B695A795979531
:101CE0008795EA95D1F7E0911804F09119044185A0
:101CF00052854438534018F431E03093130430E0F7
:101D000030930E0420930D0490930C0480930B04E5
:101D1000208530E0C901019797FDC9019595879508
:101D2000909312048093110483E190E099CF81E0B5
:101D300080937E0289E793E090937C0280937B02FC
:101D400010927D020E94C300813009F06AC0C12C4C
:101D5000D12C760110E0E0911804F09119049085DF
:101D600080917E028917E0F40E94C300082F0E9430
:101D7000C30001110BC0813009F053C0CC0CDD1C35
:101D8000EE1CFF1C6894C0F81F5FE5CF013009F01E
:101D900048C0811146C0CC0CDD1CEE1CFF1CF4CFEA
:101DA000812F90E09093120480931104C092140448
:101DB000D0921504E0921604F09217048C2D8F73C4
:101DC00090E090930E0480930D04960146E03695C2
:101DD00027954A95E1F72F71332730930C04209310
:101DE0000B04960122273071232B31F4805C9F4F26
:101DF00090930E0480930D0480E880931304D3FE27
:101E000003C088E88093130481859285833E9840BF
:101E100028F4809113048160809313048FE090E094
:101E20001FCFE0911804F091190483859485889759
:101E30004D9708F046C0858596850C970B9708F05E
:101E400040C083E080937E028CEB91E090937C0213
:101E500080937B0210927D020E94C300813089F53D
:101E60000E94C300182F81112CC0C12CD12C7601E7
:101E7000E0911804F0911904908580917E028917F1
:101E800008F071C00E94C300582E1330B1F00E94B8
:101E9000C300082F133021F40E94C300081311C09F
:101EA000B1E05B1256C001110CC0CC0CDD1CEE1C65
:101EB000FF1C6894C0F81F5FDBCF0E94C300581658
:101EC00031F3E0911804F091190420852C3311F0BE
:101ED000243051F4838594858638910508F48CC0AC
:101EE000833E910508F4A5C0E0911804F09119040F
:101EF0008085843209F40AC1823209F035C18185B6
:101F000092858C3E9C4508F019CD83859485089771
:101F1000079708F013CDE55BFF4F8081918108970B
:101F2000079708F00BCD81E08093130480911C0487
:101F300090911D0490930C0480930B0480912004D5
:101F40009091210490930E0480930D0485E090E01D
:101F500087CE5110B6CF013009F0B3CFCC0CDD1CC9
:101F6000EE1CFF1CA8CF812F90E090931204809369
:101F70001104C0921404D0921504E0921604F09259
:101F800017042C2D30E08D2D1432F8F480E8809366
:101F9000130430930E0420930D048D2D90E0909344
:101FA0000C0480930B04E0FE03C088E880931304C4
:101FB0008185928583379A4028F48091130481604B
:101FC0008093130480E190E04BCE90E9909313044A
:101FD000D7FE03C098E99093130430930E04209326
:101FE0000D048F7790E090930C0480930B04F09293
:101FF0001004E0920F04DCCF8D32910508F474CF09
:102000006CE175E2B7E0CB2ED12C8D34910508F050
:102010006BCF85859685243091F44D97469708F0CF
:1020200063CF878590890797089708F05DCF81E88F
:1020300004CC68E670E1A6E0CA2ED12CEACF0E945B
:10204000D204882309F450CFEE24E39406E212E090
:102050002CE236E044EF51E063E08CE10E9404059D
:10206000882309F441CFE0911804F0911904E15854
:10207000FF4F808191810797089708F035CF80E85E
:10208000809313048091140490911504A091160478
:10209000B09117048C019D0144E036952795179562
:1020A00007954A95D1F7B80110930E0400930D04DB
:1020B0008C019D0154E136952795179507955A9502
:1020C000D1F710930C0400930B0444E050E020E09F
:1020D000362F3F70230F14E0769567951A95E1F738
:1020E00041505109A9F782278F709927AA27BB274A
:1020F000892B8A2B8B2B19F084E880931304D092C0
:102100000A04C09209048CE190E030CD8385948567
:102110008D5791098735910538F585859685CE9738
:102120008C9710F5E12C0EE012E02AE236E04EE04A
:1021300052E063E080E10E9404058823A9F08091C9
:1021400014042091150430E030930E0420930D0404
:1021500090E090930C0480930B0480E190E09093C6
:10216000120480931104F2CEE0911804F091190446
:102170008085982F9F7D943419F0863009F08DC0AA
:1021800023853485225431092F32310508F085C06A
:1021900025853685215431092F32310508F07DC05F
:1021A0008630B1F481E08093130480911C049091F7
:1021B0001D0490930C0480930B0480912004909153
:1021C000210490930E0480930D0481E190E048CDAA
:1021D000E12C09E212E02BE736E049E252E063E04D
:1021E0008436B9F580E10E940405882309F455C0BE
:1021F000809114049091150490930C0480930B0427
:102200002BE736E049E252E063E080E20E940405F9
:10221000882309F442C09091140430911504209150
:102220001604809117042095821731F0909593172A
:1022300019F094E090931304982F832F90930E0439
:1022400080930D0480E390E0909312048093110436
:10225000BCCF80E20E9404058823F9F08091160427
:1022600030911704209114049091150420930B04CD
:1022700090930C04932F909589130AC090E090934B
:102280000E0480930D0470921204609211049DCF8D
:1022900080930D0430930E04F6CFE0911804F09172
:1022A0001904838594852085243459F50B970A9762
:1022B00040F5858596858A974E9718F5EE24E39428
:1022C0000EEE12E026E638E04EEE52E063E080E2E9
:1022D0000E9404058823A9F0E0911804F0911904E4
:1022E000E157FF4F808191810B970A9750F480E866
:1022F00080931304709212046092110489E190E0BB
:10230000AFCCE0911804F091190420858385948561
:102310000297049708F062C0243209F05FC08585F7
:1023200096850F970C9708F059C0EE24E39407E0C8
:1023300011E029E232E04EE950E063E080E10E94E2
:102340000405882309F44AC0E0911804F0911904A7
:10235000DF01A15BBF4F8D919C9102970497F0F52F
:1023600080E8809313049091140480911504292F20
:10237000382F482F42954F708F70A4E036952795DF
:10238000AA95E1F72F70392F3F709FE09427982787
:102390009227391719F094E8909313046185728598
:1023A000683F714128F49091130492609093130454
:1023B00040930B0410920C0450E1859FC00111243E
:1023C000822B90930E0480930D0487E190E090930C
:1023D0000A048093090480E190E0C8CBE0911804DE
:1023E000F091190420858385948540970D97B8F561
:1023F0002432A9F5858596854597409780F5E12C8F
:1024000007EA15E024ED31E046E152E063E080E1C7
:102410000E940405882319F1E0911804F091190431
:10242000DF01A15BBF4F8D919C9108970797B8F48E
:10243000809114049091150498279F3F81F4218581
:1024400032852431354018F491E09093130490E0E4
:1024500090930E0480930D0486E190E0B8CFA09194
:102460001804B091190418968C911897843108F4C7
:10247000E4C082E3F40111928A95E9F718962C9151
:1024800018972250330B60E044E0842F90E08217CD
:1024900093079CF4880F991FFD01E80FF91F8185B0
:1024A000823348F4F401E80FF11D90819F5F90831F
:1024B000681708F4682F4E5FE8CF1EAA1DAA9E0178
:1024C0002B5C3F4FAE014A5C5F4FC4010E94B009D4
:1024D000882309F4B2C082E3D4011D928A95E9F7FA
:1024E000A0911804B091190418962C9118972250B5
:1024F000330B60E043E0842F90E0821793079CF455
:10250000880F991FFD01E80FF91F8185823348F478
:10251000F401E80FF11D90819F5F9083681708F424
:10252000682F4E5FE8CF1CAA1BAA9E012D5C3F4F6F
:10253000AE014C5C5F4FC4010E94B009E0911804E9
:10254000F0911904D084D6948D2D90E09C012250F6
:1025500031093093120420931104039745E09695B6
:1025600087954A95E1F7C82E8DA9811135C08BA9B1
:10257000882309F462C0DA94DA9423E0A22EB12C05
:1025800032E3532E0EA9059D800111242CA9259D0F
:10259000900111244BA9459DA00111248D2DB0E27D
:1025A000BD1508F480E26A2D0E94B505882309F460
:1025B00044C0E0E4AE0EB394F0EEDF0ECB1410F79F
:1025C0008CA99BA989279827892790931004809329
:1025D0000F0482E090E044CBDA94DA9483E0A82EF2
:1025E000B12C92E3592E0EA9059D800111242DA92D
:1025F000259D900111244CA9459DA00111248D2DEC
:1026000090E29D1508F480E2E12C6A2D0E940405F9
:10261000882399F0A0E4AA0EB394B0EEDB0ECB149D
:1026200010F78EA99DA989279827892790931004D0
:1026300080930F0481E090E013CBC0901804D090F9
:102640001904D6011896EC91E63008F477C911E028
:1026500025EC3DE94CE151E8F0E0812F90E0BC0130
:102660006E5F7F4F6E177F07D4F5660F771FD60119
:10267000A60FB71F19966D917C91880F991FD601EF
:10268000A80FB91F19968D919C91469E5001479EA7
:10269000B00C1124DC0103E0AA0FBB1F0A95E1F77F
:1026A00000E0AA16BB0680F0489ED001499EB00DFE
:1026B0001124CB0163E0880F991F6A95E1F702E0CE
:1026C000A817B90708F001E063E971E080E091E044
:1026D0000E9462149B01AC0120271F5FBECF209394
:1026E0001404309315044093160450931704709209
:1026F00012046092110410920A04109209041EC977
:1027000010E781152FEF920723E4A2072CEBB20705
:1027100081F017E381153FEF930732E4A3073DEB08
:10272000B30739F01CE381159F4FA444BB4B09F05C
:1027300040C9812F012E000C990B8F5B9E4F0E9488
:10274000ED0641E0612F8AE293E00E945D0664E6B7
:1027500070E080E090E00E94C902133309F48CC05D
:102760000CF07FC0113309F48FC0123309F488C014
:102770000E94D30668EC70E080E090E00E94C902FD
:1027800080E00E94940685EB90E00E947A0681E04A
:102790000E94940687EA90E00E947A0680913603B0
:1027A000833011F41092360360ED77E080E090E022
:1027B0000E94C9020E94D30664E670E080E090E0C7
:1027C0000E94C9020E94C50651C01BE28115EFEFAD
:1027D0009E07E5E1AE07EAEEBE0709F4AACFE0F4F2
:1027E00012E381152FEF920728E1A20727EEB20727
:1027F00009F49FCF10E381153FEF930736E1A3075C
:1028000039EEB30709F495CF15E381159F4FAC411D
:10281000B34E09F48ECFCDC815E68115EFEF9E07B4
:10282000E9E0AE07E6EFBE0709F483CF40F411E319
:1028300081159F4FAC40B34F09F47BCFBAC814E366
:1028400081153FEF930738E0A30737EFB30709F48B
:1028500070CF1DE281159F4FA740B84F09F469CF93
:10286000A8C8143329F01F3309F082CF11E011C03A
:1028700087E491E00E94ED0687E591E00E94ED0675
:1028800087E691E00E94ED0687E791E00E94ED0661
:1028900010E064EF71E080E090E00E94C902111145
:1028A0000C94CD0B87E891E00E94ED0600E010E06B
:1028B00001151105E9F30E94B5018823C9F30E94AF
:1028C0000000F6CFDB018F939F930E947214BF919B
:1028D000AF91A29F800D911DA39F900DB29F900D6F
:1028E000112408950E947D14A59F900DB49F900D12
:1028F000A49F800D911D11240895A29FB001B39F44
:10290000C001A39F700D811D1124911DB29F700DF8
:10291000811D1124911D0895AA1BBB1B51E107C005
:10292000AA1FBB1FA617B70710F0A61BB70B881F5F
:10293000991F5A95A9F780959095BC01CD010895EE
:10294000EE0FFF1F0590F491E02D0994F894FFCF4E
:10295000000040001400540000000000EB014B0197
:1029600078013802A90187019B0100000000B8032B
:102970008B03CF0461038403710362030000000032
:1029800074064B01CF04CE040D0A006475707061AB
:10299000006F64703A200074776F727A652034207B
:1029A000677261637A610074776F727A6520332091
:1029B000677261637A610074776F727A6520322082
:1029C000677261637A610074776F727A6520312073
:1029D000677261637A61005779737AC5826F207A72
:1029E0002070C499746C692C20C59B776961742030
:1029F000757261746F77616E792C206D6FC5BC6ED6
:062A00006120C59B0000EF
:00000001FF
